:100000000C946D000C948A000C948A000C948A0065
:100010000C948A000C948A000C948A000C948A0038
:100020000C948A000C948A000C948A000C948C0026
:100030000C948A000C948A000C948A000C948A0018
:100040000C948A000C948A000C948A000C948A0008
:100050000C948A000C948A000C94F40376027102CA
:100060006C027B028002970285028F028A02510A8B
:10007000802A0000000A510A000059551801111E7B
:10008000111B500B411B411F1101511F511B00003F
:10009000000000000000000000000000510F913936
:1000A00041149131411E410E411D500F8020101509
:1000B00048864014780570855115510E5195518E22
:1000C000219081205015484450C528C0282009504F
:1000D0000000000000000000000011241FBECFEF50
:1000E000D4E0DEBFCDBF11E0A0E0B1E0E8EAFDE082
:1000F00002C005900D92A035B107D9F711E0A0E537
:10010000B1E001C01D92A03FB107E1F70E94A10438
:100110000C94D2060C9400001F920F920FB60F920F
:1001200011242F933F934F935F936F937F938F93FC
:100130009F93AF93BF93EF93FF936091A60170914C
:10014000A70180E090E00E94A4052FE632E143E0A1
:1001500052E40E94AC040E9478057093A70160935A
:10016000A6018091A101813099F028F0823071F0D0
:10017000833071F023C020918201309183018091FE
:100180009F019091A001820F931F0CC0000016C028
:10019000809182019091830120919F013091A00173
:1001A000821B930B90938301809382018091820143
:1001B000909183019093890080938800FF91EF9143
:1001C000BF91AF919F918F917F916F915F914F916F
:1001D0003F912F910F900FBE0F901F9018950F9386
:1001E0001F93CF93DF9300D000D01F92CDB7DEB71F
:1001F00004EB10E04AE050E0BE016F5F7F4FC801A2
:100200000E94A10660E0CE0101960E9450038FE497
:1002100093EC0197F1F700C000000150110950F76D
:100220000F900F900F900F900F90DF91CF911F9133
:100230000F910895CF93DF93CDB7DEB784E891E0B7
:100240000E946006892B19F462E070E004C00E94ED
:10025000EF0061E070E08BE691E00E9480060E9472
:100260001A01CF92DF92EF92FF92CF93DF93EA01D0
:1002700070938700609386009A013695279536958E
:10028000279530939C0120939B0120919B013091F5
:100290009C013695279530939E0120939D012091D6
:1002A0009B0130919C01220F331F3093A5012093B5
:1002B000A40120919D0130919E013093A3012093D0
:1002C000A2019093A9018093A801BC01882777FD22
:1002D0008095982F0E94A6056B017C01BE0180E0ED
:1002E00090E00E94A4052FE632E143E052E40E9430
:1002F00010059B01AC01C701B6010E9410050E94C8
:1003000078057093A00160939F0110928301109271
:1003100082011092A7011092A6011092A1012091D2
:10032000A6013091A70180919B0190919C01281713
:10033000390710F40000F3CF1092A7011092A60124
:1003400081E08093A1012091A6013091A7018091C5
:100350009D0190919E012817390710F40000F3CFFA
:100360001092A7011092A60182E08093A101209132
:10037000A6013091A7018091A4019091A5012817B1
:10038000390710F40000F3CF1092A7011092A601D4
:1003900083E08093A1012091A6013091A701809173
:1003A000A2019091A3012817390710F40000F3CFA0
:1003B000DF91CF91FF90EF90DF90CF900895CF9392
:1003C000DF939A0170938700609386003695279596
:1003D00036952795F901F595E795E901CC0FDD1FD5
:1003E000B9010E943206AB0180E090E082179307CA
:1003F00074F45093890040938800A3EFB1E0119703
:10040000F1F700C000000196460F571FEFCF629F23
:10041000A001639F500D729F500D11249A0180E03E
:1004200090E08E179F0774F4261B370B30938900DA
:1004300020938800A3EFB1E01197F1F700C000000E
:100440000196EFCFAA27BB27A61BB70BAE9FC00113
:10045000AF9F900DBE9F900D1124840F951F20E03B
:1004600030E02C173D074CF4A3EFB1E01197F1F702
:1004700000C000002F5F3F4FF4CF20E030E02E1788
:100480003F077CF4861B970B90938900809388002C
:10049000A3EFB1E01197F1F700C000002F5F3F4FCD
:1004A000EECFDF91CF9108950F931F93CF93DF93FA
:1004B00000E011E0CAE1D1E0F1E00A311F07C9F123
:1004C000F80181918F0190E08930910580F5FC0160
:1004D000E25DFF4F0C9446066881798144EF51E05C
:1004E00022C06881798148EE53E01DC0688179811E
:1004F00040ED57E018C0688179814AEF50E013C0A1
:10050000688179814DE750E00EC06881798147E7C5
:1005100051E009C0688179814EEE52E004C06881E3
:1005200079814CED55E084EF91E00E94DF01229645
:10053000C3CFDF91CF911F910F910895CF93DF9398
:10054000CDB7DEB78BE691E00E946006892B11F4EF
:100550000E941A010E94540261E070E084E891E078
:100560000E94800694B59078982B94BD16BC85B3F4
:100570008C7F85BBEEE6F0E080818C7F816080839C
:1005800080E090E00895009741F0E3EFF1E03197CB
:10059000F1F700C000000197F6CF089510926B00AC
:1005A00010926C0010927E0010927F0080E090E02C
:1005B0000895259A2D98A0E8B0E08C918F738068FB
:1005C0008C93E1E8F0E08081877E806180838C916C
:1005D0008C7F8C938081887F8160808380E090E035
:1005E000089520E08A3018F02F5F8A50FBCF90E109
:1005F000299F90011124822B0895843640F09CE9B4
:10060000980F943638F0885C22E030E006C020E095
:1006100030E003C0892F21E030E044E0220F331F97
:100620004A95E1F78A3020F02F5F3F4F8A50FACF8A
:1006300094E0220F331F9A95E1F7A901482BCA01D4
:100640000895209153012111FCCFA6EDB1E020E0E7
:1006500030E0422FFC01E20FF31FE491EE2341F062
:100660002F5F3F4F2A31310511F0ED93F2CF49E171
:10067000E42FF0E0EA52FE4F1082473048F081E06C
:100680008093C1011092EF0183E08093520104C076
:100690001092C1011092EF0181E0809353010895FF
:1006A000209153012111FCCFFC01A6EDB1E080E0C7
:1006B0009191992329F0893119F09D938F5FF8CF9B
:1006C000E82FF0E0EA52FE4F1082873048F081E0D8
:1006D0008093C1011092EF0183E08093520104C026
:1006E0001092C1011092EF0181E0809353010895AF
:1006F000893128F4E82FF0E0EA52FE4F6083089534
:10070000E6EDF1E080E2819391E0EF3EF907D9F761
:100710000895809350010895909153019111FCCF59
:100720006093C1011092EF018093530108951092DC
:10073000510108956630A0F596ED980F913568F453
:10074000813608F08F7D8A5290E0880F991F825978
:100750009F4FFC012591349102C020E030E0A62F8C
:10076000A17060FF02C07FE001C070EF6695E62FC8
:10077000F0E0EE53FE4FCF014496522F5F7044E0FD
:10078000369527954A95E1F7AA2311F05295507FA7
:1007900040814723452B40833596E817F90769F7D1
:1007A000089591E0811101C090E09195E2ECF1E0B3
:1007B000919381E0E63DF807D9F7089580E00E9423
:1007C000D1038FE08093E70087EB8093E50087E01B
:1007D0008093E600E4EEF0E080EC80838081886026
:1007E000808310925301089578941F920F920FB650
:1007F0000F921124FF920F931F932F933F934F93C8
:100800005F936F937F938F939F93AF93BF93CF9398
:10081000DF93EF93FF9380914F01815080934F01BD
:100820009091C101992371F081110EC08091520104
:10083000811104C081E08093530106C081508093F0
:10084000520102C01092EF0180915301813009F0F2
:1008500051C0F0905101C0E0D0E010E000E06C2FFA
:100860008091EF019E01280F311D87FD3A9537FDDC
:1008700015C0111113C08091EF01FE01EA52FE4F25
:10088000E80FF11D87FDFA958081082F001F0027D2
:10089000001F8F7721F411E01C0F01C080E20023BC
:1008A00021F034E03F1508F480E20E949A0321967B
:1008B000C630D105A1F6A2ECB1E0ECEEF0E08D91EE
:1008C0008193E11581E0F807D1F7809150018823E9
:1008D00021F081E08093F40002C01092F400113006
:1008E00011F48AEF03C08091EF018F5F8093EF01D5
:1008F0001092530180914F01811103C083E08093D6
:100900004F01809151018A3019F41092510103C0B6
:100910008F5F80935101FF91EF91DF91CF91BF9154
:10092000AF919F918F917F916F915F914F913F9187
:100930002F911F910F91FF900F900FBE0F901F905E
:100940001895F8940E94CE020E94DE030E94D902FC
:1009500078940E949E025058BB27AA270ED048C107
:1009600039D130F03ED120F031F49F3F11F41EF424
:100970002EC10EF4E095E7FB24C1E92F4AD180F3A4
:10098000BA17620773078407950718F071F49EF58C
:1009900062C10EF4E0950B2EBA2FA02D0B01B90108
:1009A00090010C01CA01A0011124FF27591B99F0E5
:1009B000593F50F4503E68F11A16F040A22F232FF1
:1009C000342F4427585FF3CF469537952795A79541
:1009D000F0405395C9F77EF41F16BA0B620B730BE8
:1009E000840BBAF09150A1F0FF0FBB1F661F771F59
:1009F000881FC2F70EC0BA0F621F731F841F48F40E
:100A0000879577956795B795F7959E3F08F0B3CF93
:100A10009395880F08F09927EE0F9795879508957D
:100A20000CD0E6C0DED040F0D5D030F021F45F3FEE
:100A300019F0C7C0511110C1CAC0EBD098F3992367
:100A4000C9F35523B1F3951B550BBB27AA27621792
:100A50007307840738F09F5F5F4F220F331F441FD7
:100A6000AA1FA9F333D00E2E3AF0E0E830D091500F
:100A70005040E695001CCAF729D0FE2F27D0660FFC
:100A8000771F881FBB1F261737074807AB07B0E83B
:100A900009F0BB0B802DBF01FF2793585F4F2AF051
:100AA0009E3F510568F08DC0D7C05F3FECF3983E84
:100AB000DCF3869577956795B795F7959F5FC9F7AE
:100AC000880F911D9695879597F90895E1E0660F37
:100AD000771F881FBB1F621773078407BA0720F0B0
:100AE000621B730B840BBA0BEE1F88F7E095089519
:100AF00098D088F09F5790F0B92F9927B751A0F060
:100B0000D1F0660F771F881F991F1AF0BA95C9F7A1
:100B100012C0B13081F09FD0B1E008959CC0672F22
:100B2000782F8827B85F39F0B93FCCF38695779551
:100B30006795B395D9F73EF490958095709561953A
:100B40007F4F8F4F9F4F0895E89409C097FB3EF465
:100B500090958095709561957F4F8F4F9F4F99230A
:100B6000A9F0F92F96E9BB279395F6958795779588
:100B70006795B795F111F8CFFAF4BB0F11F460FF48
:100B80001BC06F5F7F4F8F4F9F4F16C0882311F0A0
:100B900096E911C0772321F09EE8872F762F05C0B4
:100BA000662371F096E8862F70E060E02AF09A954F
:100BB000660F771F881FDAF7880F9695879597F944
:100BC000089597F99F6780E870E060E008959FEFCF
:100BD00080EC089500240A941616170618060906D4
:100BE000089500240A9412161306140605060895A3
:100BF000092E0394000C11F4882352F0BB0F40F42B
:100C0000BF2B11F460FF04C06F5F7F4F8F4F9F4F6A
:100C1000089557FD9058440F551F59F05F3F71F0EC
:100C20004795880F97FB991F61F09F3F79F0879553
:100C30000895121613061406551FF2CF4695F1DFDC
:100C400008C0161617061806991FF1CF869571056C
:100C5000610508940895E894BB2766277727CB01A0
:100C600097F9089597FB072E16F4009407D077FDA7
:100C700009D00E944C0607FC05D03EF49095819562
:100C80009F4F0895709561957F4F0895EE0FFF1F58
:100C90000590F491E02D0994AA1BBB1B51E107C0FC
:100CA000AA1FBB1FA617B70710F0A61BB70B881FFC
:100CB000991F5A95A9F780959095BC01CD0108958B
:100CC000DC012D923D924D925D926D927D928D92BE
:100CD0009D92AD92BD92CD92DD92ED92FD920D93DB
:100CE0001D93CD93DD93FF91EF918DB78D938EB7CB
:100CF0008D938FB78D93ED93FD9388279927099452
:100D0000DC01CB0181309105811D2D903D904D90EE
:100D10005D906D907D908D909D90AD90BD90CD90AB
:100D2000DD90ED90FD900D911D91CD91DD91ED91B6
:100D3000FD910D90F894FEBF0FBEEDBFED91FD91BA
:100D40000994FB019F01E8944230C4F04532B4F4A9
:100D50004A3029F497FB1EF4909581959F4F642F9C
:100D600077270E944C06805D8A330CF0895D819361
:100D7000CB010097A1F716F45DE251931082C901EF
:100D80000C94C206DC01FC01672F71917723E1F717
:100D9000329704C07C916D9370836291AE17BF0748
:080DA000C8F30895F894FFCF99
:100DA8000303060304030303030306030403030303
:100DB800030303040304030308078E0A0500E0087D
:100DC8008E0A8E0AE8078E0AD60B8E0A05000D07D2
:100DD8008E0A8E0AA7060D07E0088E0A0D0747053A
:100DE8008E0AD60BD60B1A0E69098E0A05000F0358
:00000001FF
